{
  "contractName": "PunchTheClock",
  "abi": [
    {
      "constant": true,
      "inputs": [
        {
          "name": "",
          "type": "uint256"
        }
      ],
      "name": "departList",
      "outputs": [
        {
          "name": "eid",
          "type": "address"
        },
        {
          "name": "time",
          "type": "uint256"
        }
      ],
      "payable": false,
      "stateMutability": "view",
      "type": "function"
    },
    {
      "constant": true,
      "inputs": [],
      "name": "arrivalsCount",
      "outputs": [
        {
          "name": "",
          "type": "uint256"
        }
      ],
      "payable": false,
      "stateMutability": "view",
      "type": "function"
    },
    {
      "constant": true,
      "inputs": [
        {
          "name": "",
          "type": "uint256"
        }
      ],
      "name": "arrivalList",
      "outputs": [
        {
          "name": "eid",
          "type": "address"
        },
        {
          "name": "time",
          "type": "uint256"
        }
      ],
      "payable": false,
      "stateMutability": "view",
      "type": "function"
    },
    {
      "constant": true,
      "inputs": [
        {
          "name": "",
          "type": "address"
        }
      ],
      "name": "entityList",
      "outputs": [
        {
          "name": "name",
          "type": "string"
        },
        {
          "name": "isRegistered",
          "type": "bool"
        },
        {
          "name": "isApproved",
          "type": "bool"
        },
        {
          "name": "arrivals",
          "type": "uint256"
        },
        {
          "name": "departures",
          "type": "uint256"
        }
      ],
      "payable": false,
      "stateMutability": "view",
      "type": "function"
    },
    {
      "constant": true,
      "inputs": [],
      "name": "departuresCount",
      "outputs": [
        {
          "name": "",
          "type": "uint256"
        }
      ],
      "payable": false,
      "stateMutability": "view",
      "type": "function"
    },
    {
      "constant": true,
      "inputs": [
        {
          "name": "",
          "type": "uint256"
        }
      ],
      "name": "registeredList",
      "outputs": [
        {
          "name": "",
          "type": "address"
        }
      ],
      "payable": false,
      "stateMutability": "view",
      "type": "function"
    },
    {
      "constant": true,
      "inputs": [],
      "name": "admin",
      "outputs": [
        {
          "name": "",
          "type": "address"
        }
      ],
      "payable": false,
      "stateMutability": "view",
      "type": "function"
    },
    {
      "inputs": [],
      "payable": false,
      "stateMutability": "nonpayable",
      "type": "constructor"
    },
    {
      "anonymous": false,
      "inputs": [
        {
          "indexed": true,
          "name": "_from",
          "type": "address"
        },
        {
          "indexed": false,
          "name": "_name",
          "type": "string"
        }
      ],
      "name": "EventRegister",
      "type": "event"
    },
    {
      "anonymous": false,
      "inputs": [
        {
          "indexed": true,
          "name": "_from",
          "type": "address"
        },
        {
          "indexed": false,
          "name": "_name",
          "type": "string"
        }
      ],
      "name": "EventArrive",
      "type": "event"
    },
    {
      "anonymous": false,
      "inputs": [
        {
          "indexed": true,
          "name": "_from",
          "type": "address"
        },
        {
          "indexed": false,
          "name": "_name",
          "type": "string"
        }
      ],
      "name": "EventDepart",
      "type": "event"
    },
    {
      "anonymous": false,
      "inputs": [
        {
          "indexed": true,
          "name": "_sender",
          "type": "address"
        },
        {
          "indexed": false,
          "name": "error",
          "type": "bytes32"
        }
      ],
      "name": "Error",
      "type": "event"
    },
    {
      "constant": true,
      "inputs": [
        {
          "name": "_address",
          "type": "address"
        }
      ],
      "name": "isRegistered",
      "outputs": [
        {
          "name": "isIndeed",
          "type": "bool"
        }
      ],
      "payable": false,
      "stateMutability": "view",
      "type": "function"
    },
    {
      "constant": false,
      "inputs": [
        {
          "name": "_address",
          "type": "address"
        }
      ],
      "name": "adminApprove",
      "outputs": [],
      "payable": false,
      "stateMutability": "nonpayable",
      "type": "function"
    },
    {
      "constant": false,
      "inputs": [
        {
          "name": "_address",
          "type": "address"
        }
      ],
      "name": "adminRevoke",
      "outputs": [],
      "payable": false,
      "stateMutability": "nonpayable",
      "type": "function"
    },
    {
      "constant": false,
      "inputs": [],
      "name": "arrive",
      "outputs": [],
      "payable": false,
      "stateMutability": "nonpayable",
      "type": "function"
    },
    {
      "constant": false,
      "inputs": [],
      "name": "depart",
      "outputs": [],
      "payable": false,
      "stateMutability": "nonpayable",
      "type": "function"
    },
    {
      "constant": false,
      "inputs": [
        {
          "name": "_name",
          "type": "string"
        }
      ],
      "name": "registerEntity",
      "outputs": [],
      "payable": false,
      "stateMutability": "nonpayable",
      "type": "function"
    },
    {
      "constant": true,
      "inputs": [],
      "name": "getRegisteredAddresses",
      "outputs": [
        {
          "name": "",
          "type": "address[]"
        }
      ],
      "payable": false,
      "stateMutability": "view",
      "type": "function"
    },
    {
      "constant": true,
      "inputs": [
        {
          "name": "_address",
          "type": "address"
        }
      ],
      "name": "getEntityData",
      "outputs": [
        {
          "name": "",
          "type": "string"
        },
        {
          "name": "",
          "type": "bool"
        },
        {
          "name": "",
          "type": "uint256"
        },
        {
          "name": "",
          "type": "uint256"
        }
      ],
      "payable": false,
      "stateMutability": "view",
      "type": "function"
    }
  ],
  "bytecode": "0x6060604052341561000f57600080fd5b336000806101000a81548173ffffffffffffffffffffffffffffffffffffffff021916908373ffffffffffffffffffffffffffffffffffffffff1602179055506000600181905550600060028190555061115b8061006e6000396000f3006060604052600436106100db576000357c0100000000000000000000000000000000000000000000000000000000900463ffffffff16806303840cba146100e0578063152e7b0b1461014a578063227ef06114610173578063291894c1146101dd57806354e200e514610247578063617a18c4146102a457806363fbfce0146103975780636ad43e5b146103c05780638fe066fc146103f95780639f71f83914610432578063c3c5a54714610447578063d4a3ffe914610498578063d9105cfe146104fb578063d97f486414610510578063f851a440146105db575b600080fd5b34156100eb57600080fd5b6101016004808035906020019091905050610630565b604051808373ffffffffffffffffffffffffffffffffffffffff1673ffffffffffffffffffffffffffffffffffffffff1681526020018281526020019250505060405180910390f35b341561015557600080fd5b61015d610674565b6040518082815260200191505060405180910390f35b341561017e57600080fd5b61018661067a565b6040518080602001828103825283818151815260200191508051906020019060200280838360005b838110156101c95780820151818401526020810190506101ae565b505050509050019250505060405180910390f35b34156101e857600080fd5b6101fe600480803590602001909190505061070e565b604051808373ffffffffffffffffffffffffffffffffffffffff1673ffffffffffffffffffffffffffffffffffffffff1681526020018281526020019250505060405180910390f35b341561025257600080fd5b6102a2600480803590602001908201803590602001908080601f01602080910402602001604051908101604052809392919081815260200183838082843782019150505050505091905050610752565b005b34156102af57600080fd5b6102db600480803573ffffffffffffffffffffffffffffffffffffffff1690602001909190505061096a565b604051808060200186151515158152602001851515151581526020018481526020018381526020018281038252878181546001816001161561010002031660029004815260200191508054600181600116156101000203166002900480156103845780601f1061035957610100808354040283529160200191610384565b820191906000526020600020905b81548152906001019060200180831161036757829003601f168201915b5050965050505050505060405180910390f35b34156103a257600080fd5b6103aa6109b9565b6040518082815260200191505060405180910390f35b34156103cb57600080fd5b6103f7600480803573ffffffffffffffffffffffffffffffffffffffff169060200190919050506109bf565b005b341561040457600080fd5b610430600480803573ffffffffffffffffffffffffffffffffffffffff16906020019091905050610a78565b005b341561043d57600080fd5b610445610b31565b005b341561045257600080fd5b61047e600480803573ffffffffffffffffffffffffffffffffffffffff16906020019091905050610c6d565b604051808215151515815260200191505060405180910390f35b34156104a357600080fd5b6104b96004808035906020019091905050610cc6565b604051808273ffffffffffffffffffffffffffffffffffffffff1673ffffffffffffffffffffffffffffffffffffffff16815260200191505060405180910390f35b341561050657600080fd5b61050e610d05565b005b341561051b57600080fd5b610547600480803573ffffffffffffffffffffffffffffffffffffffff16906020019091905050610e41565b604051808060200185151515158152602001848152602001838152602001828103825286818151815260200191508051906020019080838360005b8381101561059d578082015181840152602081019050610582565b50505050905090810190601f1680156105ca5780820380516001836020036101000a031916815260200191505b509550505050505060405180910390f35b34156105e657600080fd5b6105ee611011565b604051808273ffffffffffffffffffffffffffffffffffffffff1673ffffffffffffffffffffffffffffffffffffffff16815260200191505060405180910390f35b60056020528060005260406000206000915090508060000160009054906101000a900473ffffffffffffffffffffffffffffffffffffffff16908060010154905082565b60015481565b610682611036565b600680548060200260200160405190810160405280929190818152602001828054801561070457602002820191906000526020600020905b8160009054906101000a900473ffffffffffffffffffffffffffffffffffffffff1673ffffffffffffffffffffffffffffffffffffffff16815260200190600101908083116106ba575b5050505050905090565b60046020528060005260406000206000915090508060000160009054906101000a900473ffffffffffffffffffffffffffffffffffffffff16908060010154905082565b61075b33610c6d565b15151561076757600080fd5b80600360003373ffffffffffffffffffffffffffffffffffffffff1673ffffffffffffffffffffffffffffffffffffffff16815260200190815260200160002060000190805190602001906107bd92919061104a565b506001600360003373ffffffffffffffffffffffffffffffffffffffff1673ffffffffffffffffffffffffffffffffffffffff16815260200190815260200160002060010160006101000a81548160ff0219169083151502179055506000600360003373ffffffffffffffffffffffffffffffffffffffff1673ffffffffffffffffffffffffffffffffffffffff16815260200190815260200160002060010160016101000a81548160ff0219169083151502179055506000600360003373ffffffffffffffffffffffffffffffffffffffff1673ffffffffffffffffffffffffffffffffffffffff168152602001908152602001600020600201819055506000600360003373ffffffffffffffffffffffffffffffffffffffff1673ffffffffffffffffffffffffffffffffffffffff168152602001908152602001600020600301819055506006805480600101828161091891906110ca565b9160005260206000209001600033909190916101000a81548173ffffffffffffffffffffffffffffffffffffffff021916908373ffffffffffffffffffffffffffffffffffffffff1602179055505050565b600360205280600052604060002060009150905080600001908060010160009054906101000a900460ff16908060010160019054906101000a900460ff16908060020154908060030154905085565b60025481565b3373ffffffffffffffffffffffffffffffffffffffff166000809054906101000a900473ffffffffffffffffffffffffffffffffffffffff1673ffffffffffffffffffffffffffffffffffffffff16141515610a1a57600080fd5b6001600360008373ffffffffffffffffffffffffffffffffffffffff1673ffffffffffffffffffffffffffffffffffffffff16815260200190815260200160002060010160016101000a81548160ff02191690831515021790555050565b3373ffffffffffffffffffffffffffffffffffffffff166000809054906101000a900473ffffffffffffffffffffffffffffffffffffffff1673ffffffffffffffffffffffffffffffffffffffff16141515610ad357600080fd5b6000600360008373ffffffffffffffffffffffffffffffffffffffff1673ffffffffffffffffffffffffffffffffffffffff16815260200190815260200160002060010160016101000a81548160ff02191690831515021790555050565b60011515600360003373ffffffffffffffffffffffffffffffffffffffff1673ffffffffffffffffffffffffffffffffffffffff16815260200190815260200160002060010160019054906101000a900460ff161515141515610b9357600080fd5b3360056000600254815260200190815260200160002060000160006101000a81548173ffffffffffffffffffffffffffffffffffffffff021916908373ffffffffffffffffffffffffffffffffffffffff1602179055504260056000600254815260200190815260200160002060010181905550600360003373ffffffffffffffffffffffffffffffffffffffff1673ffffffffffffffffffffffffffffffffffffffff16815260200190815260200160002060030160008154809291906001019190505550600260008154809291906001019190505550565b6000600360008373ffffffffffffffffffffffffffffffffffffffff1673ffffffffffffffffffffffffffffffffffffffff16815260200190815260200160002060010160009054906101000a900460ff169050919050565b600681815481101515610cd557fe5b90600052602060002090016000915054906101000a900473ffffffffffffffffffffffffffffffffffffffff1681565b60011515600360003373ffffffffffffffffffffffffffffffffffffffff1673ffffffffffffffffffffffffffffffffffffffff16815260200190815260200160002060010160019054906101000a900460ff161515141515610d6757600080fd5b3360046000600154815260200190815260200160002060000160006101000a81548173ffffffffffffffffffffffffffffffffffffffff021916908373ffffffffffffffffffffffffffffffffffffffff1602179055504260046000600154815260200190815260200160002060010181905550600360003373ffffffffffffffffffffffffffffffffffffffff1673ffffffffffffffffffffffffffffffffffffffff16815260200190815260200160002060020160008154809291906001019190505550600160008154809291906001019190505550565b610e496110f6565b6000806000600360008673ffffffffffffffffffffffffffffffffffffffff1673ffffffffffffffffffffffffffffffffffffffff168152602001908152602001600020600001600360008773ffffffffffffffffffffffffffffffffffffffff1673ffffffffffffffffffffffffffffffffffffffff16815260200190815260200160002060010160019054906101000a900460ff16600360008873ffffffffffffffffffffffffffffffffffffffff1673ffffffffffffffffffffffffffffffffffffffff16815260200190815260200160002060020154600360008973ffffffffffffffffffffffffffffffffffffffff1673ffffffffffffffffffffffffffffffffffffffff16815260200190815260200160002060030154838054600181600116156101000203166002900480601f016020809104026020016040519081016040528092919081815260200182805460018160011615610100020316600290048015610ffb5780601f10610fd057610100808354040283529160200191610ffb565b820191906000526020600020905b815481529060010190602001808311610fde57829003601f168201915b5050505050935093509350935093509193509193565b6000809054906101000a900473ffffffffffffffffffffffffffffffffffffffff1681565b602060405190810160405280600081525090565b828054600181600116156101000203166002900490600052602060002090601f016020900481019282601f1061108b57805160ff19168380011785556110b9565b828001600101855582156110b9579182015b828111156110b857825182559160200191906001019061109d565b5b5090506110c6919061110a565b5090565b8154818355818115116110f1578183600052602060002091820191016110f0919061110a565b5b505050565b602060405190810160405280600081525090565b61112c91905b80821115611128576000816000905550600101611110565b5090565b905600a165627a7a72305820322ae77e975a5516278f96fbc7cd867589e4e0bf3228d5abcf11b3ee2fc4f4a50029",
  "source": "pragma solidity ^0.4.16;\n\ncontract PunchTheClock {\n\n    address public admin;\n    uint public arrivalsCount;\n    uint public departuresCount;\n\n    function PunchTheClock() public {\n        admin = msg.sender;\n        arrivalsCount = 0;\n        departuresCount = 0;\n    }\n\n    /**\n     * Structs\n     * @type entity\n     * @type timestamp\n    */\n    struct entity {\n        string name;\n        bool isRegistered;\n        bool isApproved;\n        uint arrivals;\n        uint departures;\n    }\n\n    struct timestamp {\n        address eid;\n        uint time;\n    }\n\n    /**\n     * Mapping\n     * @type entityList: Status of everyone registering with Smart Contract\n     * @type arrivalList: List of times people arrived\n     * @type departList: List of times people departed\n    */\n    mapping (address => entity) public entityList;\n    mapping (uint => timestamp) public arrivalList;\n    mapping (uint => timestamp) public departList;\n\n    address[] public registeredList;\n\n    /**\n     * Events\n     * Monitor smart contact events to push state changes\n    */\n    event EventRegister(    \n      address indexed _from,\n      string _name\n    );\n    event EventArrive(    \n      address indexed _from,\n      string _name\n    );\n    event EventDepart(    \n      address indexed _from,\n      string _name\n    );\n    \n\n    event Error(address indexed _sender, bytes32 error);\n\n    modifier isAdmin() {\n        require(admin == msg.sender);\n        _;\n    }\n\n    modifier isApproved() {\n        require(entityList[msg.sender].isApproved == true);\n        _;\n    }\n\n    function isRegistered(address _address) public view returns(bool isIndeed) {\n        return entityList[_address].isRegistered;\n    }\n\n    /**\n     * Administrator Privileges\n     */\n    function adminApprove(address _address) public isAdmin {\n        entityList[_address].isApproved = true;\n    }\n\n    function adminRevoke(address _address) public isAdmin {\n        entityList[_address].isApproved = false;\n    }\n\n    /**\n     * Entity Privileges\n     */\n    function arrive() public isApproved {\n        arrivalList[arrivalsCount].eid = msg.sender;\n        arrivalList[arrivalsCount].time = now;\n        entityList[msg.sender].arrivals++; \n        arrivalsCount++;\n    }\n    function depart() public isApproved {\n        departList[departuresCount].eid = msg.sender;\n        departList[departuresCount].time = now;\n        entityList[msg.sender].departures++;\n        departuresCount++;\n    }\n\n    /**\n     * Register Entity\n     */\n    function registerEntity(string _name) public {\n        require(!isRegistered(msg.sender));\n        entityList[msg.sender].name = _name;\n        entityList[msg.sender].isRegistered = true;\n        entityList[msg.sender].isApproved = false;\n        entityList[msg.sender].arrivals = 0;\n        entityList[msg.sender].departures = 0;\n        registeredList.push(msg.sender);\n    }\n\n    function getRegisteredAddresses() view public returns (address[]) {\n        return registeredList;\n    }\n\n    function getEntityData(address _address) view public returns (string, bool, uint, uint) {\n        return (\n          entityList[_address].name,\n          entityList[_address].isApproved,\n          entityList[_address].arrivals,\n          entityList[_address].departures\n        );\n    }\n\n}\n",
  "sourcePath": "/Users/kamescg/Documents/Projects/uPort/code/projects/uportable/contracts/PunchTheClock.sol",
  "compiler": {
    "name": "solc",
    "version": "0.4.19+commit.c4cbbb05.Emscripten.clang"
  },
  "schemaVersion": "2.0.0",
  "updatedAt": "2018-04-14T20:26:10.723Z"
}